:020000040000FA
:10000000020A161200EC7B391200EE7B141200EE8D
:100010007B731200EE7B561200EE7B6C1200EE1228
:1000200000EC7B011200EE7B0C7A00E4FDFC7F7C8F
:10003000FE0200F675A50275D5072202003EC0E05B
:10004000C0D075D000C000E5C054F02480604824C2
:10005000C0601724E07063850AC2C2C575180075B8
:100060001901751A00751B01805030C122D3E519A2
:1000700095107480F86518985015E51925E0240945
:10008000F808E6F5C20519E51970020518802BE598
:10009000106027D2C48023D3E51B9401E51A648045
:1000A0009480500F85C217D2C1051BE51B70020555
:1000B0001A800785C20FC2C1D2C4C2C0D000D0D03E
:1000C000D0E0325388CF5389F0438901438E04EF47
:1000D0004E6016C28C758CA0758A4CC28DD28C3045
:1000E0008DFDEF1F70E91E80E6C28C227B387A00FE
:1000F000E4FDFC7F7CFE8E098F0A8C0B8D0C8A0D33
:100100008B0E751002D2C57F0A7E000200C385A740
:100110001C1201E31200341201C712019A12014BA2
:100120001201CE1201D51201DC851CA72212017822
:1001300012010E120003E4FDFC7F90FE1201647FA9
:10014000917E0012018B12080080EBE5915404535C
:1001500091FB75953875949E75933875929E439171
:10016000044291228E098F0A8C0B8D0C751001D2DE
:10017000C57F0A7E000200C385A71C1201BE1201C2
:10018000EA1201B41201A8851CA7228E098F0AE485
:10019000F510D2C57F0AFE0200C3AF8875880075CE
:1001A0008DBC758B348F8822E4F5A9E5A954806451
:1001B0008070F82243B280E5B2544060FA22E4F540
:1001C000A753D9BFF5D92275E34075E1042275899B
:1001D000204388402253C1FC43C1DD2275E681756E
:0F01E000A88022E4F5A775D4E72275C910222262
:100800007B801200EE751500751607AF16A807E578
:1008100017088002C313D8FC5401F51CFF3395E080
:100820004F700B7B30FA7D40FC7F7CFE800C7B316F
:100830007A007D407C007F7C7E001200F6E5161574
:100840001670021515C3E5156480948050BD7515AA
:1008500000751607AF16A807E50F088002C313D866
:10086000FC5401F51CFF3395E04F700B7B30FA7D93
:1008700040FC7F7CFE800C7B317A007D407C007FD9
:100880007C7E001200F6E516151670021515C3E5FC
:08089000156480948050BD2224
:0F0A16001201EE787FE4F6D8FD75811C02012DE8
:00000001FF
