:020000040000FA
:10000000020A137B381200EC7B391200EC7B1412CD
:1000100000EC7B531200EC7B731200EC7B6C120043
:10002000EC7B0C1200EC7B017A00E4FDFC7F7CFE93
:100030000200F475A50275D507222202003EC0E039
:10004000C0D075D000C000E5C054F02480604824C2
:10005000C0601724E07063850AC2C2C575180075B8
:100060001901751A00751B01805030C122D3E519A2
:1000700095107480F86518985015E51925E0240945
:10008000F808E6F5C20519E51970020518802BE598
:10009000106027D2C48023D3E51B9401E51A648045
:1000A0009480500F85C217D2C1051BE51B70020555
:1000B0001A800785C20FC2C1D2C4C2C0D000D0D03E
:1000C000D0E0325388CF5389F0438901438E04EF47
:1000D0004E6016C28C758CA0758A4CC28DD28C3045
:1000E0008DFDEF1F70E91E80E6C28C227A00E4FDD0
:1000F000FC7F7CFE8E098F0A8C0B8D0C8A0D8B0E7B
:10010000751002D2C57F0A7E000200C385A71C12AB
:1001100001E11200331201C51201981201491201C6
:10012000CC1201D31201DA851CA72212017612012A
:100130000C120003E4FDFC7F90FE1201627F917EB1
:100140000012018912080080EBE59154045391FBE1
:1001500075953875949E75933875929E43910442B7
:1001600091228E098F0A8C0B8D0C751001D2C57FE0
:100170000A7E000200C385A71C1201BC1201E8120E
:1001800001B21201A6851CA7228E098F0AE4F51080
:10019000D2C57F0AFE0200C3AF88758800758DBC8A
:1001A000758B348F8822E4F5A9E5A95480648070AA
:1001B000F82243B280E5B2544060FA22E4F5A75336
:1001C000D9BFF5D92275E34075E104227589204332
:1001D00088402253C1FC43C1DD2275E68175A880A9
:0C01E00022E4F5A775D4E72275C91022AF
:100800007B801200EC751500751607AF16A807E57A
:1008100017088002C313D8FC5401F51CFF3395E080
:100820004F700B7B30FA7D40FC7F7CFE800C7B316F
:100830007A007D407C007F7C7E001200F4E5161576
:100840001670021515C3E5156480948050BD7515AA
:1008500000751607AF16A807E50F088002C313D866
:10086000FC5401F51CFF3395E04F700B7B30FA7D93
:1008700040FC7F7CFE800C7B317A007D407C007FD9
:100880007C7E001200F4E516151670021515C3E5FE
:08089000156480948050BD2224
:0F0A130012003A787FE4F6D8FD75811C02012BA2
:00000001FF
